:1000000000400020850F0000C50F0000C70F000052
:1000100000000000000000000000000000000000E0
:10002000000000000000000000000000C90F0000F8
:100030000000000000000000CB0F0000CD0F00000A
:10004000CF0F0000CF0F0000CF0F0000CF0F000038
:10005000CF0F000000000000CF0F0000CF0F000006
:10006000CF0F0000CF0F0000CF0F0000CF0F000018
:10007000CF0F0000CF0F0000CF0F0000CF0F000008
:10008000CF0F0000CF0F0000CF0F0000CF0F0000F8
:10009000CF0F0000CF0F0000CF0F0000CF0F0000E8
:1000A000CF0F0000CF0F0000000000000000000094
:1000B0000000000000000000000000000000000040
:1000C000054B0648033310B51B1A062B03D9044B06
:1000D000002B00D0984710BD4004002040040020B1
:1000E000000000000648074910B5091A8910CB0F17
:1000F0005918491003D0044B002B00D0984710BD6D
:1001000040040020400400200000000010B5074C0F
:100110002378002B09D1FFF7D3FF054B002B02D02A
:10012000044800E000BF0123237010BD40040020FC
:100130000000000080150000094B10B5002B03D013
:100140000849094800E000BF08480368002B02D1B5
:10015000FFF7C8FF10BD064B002BF9D09847F7E713
:100160000000000044040020801500003C04002032
:1001700000000000144B002B00D1124B9D46402282
:1001800092029A1A924600218B460F461148124A53
:10019000121A01F05FF80D4B002B00D098470C4B62
:1001A000002B00D098470020002104000D000B48D0
:1001B00000F0FAFF01F02AF82000290000F010F802
:1001C00000F0FAFF000008000040002000000000DE
:1001D00000000000400400205C040020D911000051
:1001E00090B589B002AF00F047F800F02FFB00F0A7
:1001F00085FC3B0000221A803B0000225A803B0015
:1002000000229A803B001A1D3B00991C3B001800FD
:1002100000F03BFB3B0000229B5E7B613B00022227
:100220009B5E3B617B693221180000F0D1FE030028
:10023000FB603B693221180000F0CAFE0300BB607E
:10024000BA68FB681100180000F07EFC3B00002239
:100250009B5E1A003B0002215B5E1C003B000421F8
:100260005B5E034903480093230000F0F7FBC0E7FF
:10027000E8140000F102000080B500AF174A184BE7
:100280001849D150A023DA05A323DB0080214904BB
:10029000D150A023DA05A323DB000021D1500F4A5F
:1002A000114B1821D1500D4A104B1921D1500B4937
:1002B000A123DB0001225242CA500849A223DB00DD
:1002C00001225242CA50054AA023DB000421D1502A
:1002D000024B01221A60C046BD4680BD002000408E
:1002E00024050000005027000C0500001405000044
:1002F00080B582B000AF0200FB1D1A700D4B0122C9
:100300009A600C49FB1D1B780B4A8B50094A8E23BF
:100310005B000021D150C046064A8E235B00D358B3
:10032000002BF9D0034B0122DA60C046BD4602B073
:1003300080BDC046002000401C05000080B582B092
:1003400000AF7860144B01225A60134B0122DA602F
:10035000114A124B0021D1500F4AA123DB00022188
:10036000D1500D4A80239B000121D1500A4AA0237D
:100370005B000021D150084AA223DB000021D150AC
:100380000549A823DB007A68CA50034B01221A6092
:10039000C046BD4602B080BD00900040040500008C
:1003A00080B500AF034B1800FFF7C8FFC046BD463D
:1003B00080BDC04600127A0080B500AF034AA0237A
:1003C0005B00D358DBB21800BD4680BD00900040F2
:1003D00080B582B000AF2A4AA023DB000021D150B3
:1003E000A023DA05E023DB000121D150A023DA05A8
:1003F000EF23DB000121D150A023DA05A123DB008C
:100400002049D150204B1800FFF798FFFB1D002218
:100410001A7027E0C0461D4AA0235B00D358002B6A
:10042000F9D0A023DB051A4A01219950174AA023CD
:100430005B000021D150C046144AA0235B00D35872
:10044000002BF9D0A023DA05A123DB000121D15034
:100450000E4AA0235B000021D150FB1D1A78FB1D22
:1004600001321A70FB1D1B78082BD3D9074B0122D0
:100470005A6000F025F9C046BD4602B080BDC046B6
:100480000030004001000040007102000090004078
:100490000C05000090B585B000AF04000800110005
:1004A0003B60FB1D221C1A70BB1D021C1A707B1DB9
:1004B0000A1C1A704849FB1D1A78B123DB00CA5088
:1004C000454B01229A60444A8E235B000021D150A3
:1004D0004149BB1D1B78414A8B50FFF761FF05E086
:1004E000FFF76AFF031E01D0002370E03A4A8E2313
:1004F0005B00D358002BF3D00F23FB1800221A7097
:1005000007E0C0460F23FB181A780F23FB180132AF
:100510001A700F23FB181B78092BF2D92E4A84235B
:100520005B000021D1502C4B01221A600E23FB18D6
:1005300000221A7025E0FFF733FF05E0FFF73CFFCC
:10054000031E01D0002342E0234A84235B00D358DA
:10055000002BF3D0204A84235B000021D1500E23CE
:10056000FB181B783A68D3181B49A322D2008A587B
:10057000D2B21A700E23FB181A780E23FB18013220
:100580001A700E23FB181A787B1D1B78013B9A42C8
:10059000D1DB114B01225A61FFF702FF05E0FFF7A3
:1005A0000BFF031E01D0002311E00B4A84235B00E4
:1005B000D358002BF3D07B1D1B78013B3A68D3182E
:1005C0000549A322D2008A58D2B21A70012318001A
:1005D000BD4605B090BDC046003000401C0500007F
:1005E00090B585B000AF0400080011003B60FB1D12
:1005F000221C1A70BB1D021C1A707B1D0A1C1A706B
:100600002D49FB1D1A78B123DB00CA502A4B012269
:100610009A60294A8E235B000021D1502649BB1DD8
:100620001B78264A8B50FFF7BBFE05E0FFF7C4FEA0
:10063000031E01D000233AE01F4A8E235B00D358EB
:10064000002BF3D00F23FB1800221A7024E0FFF7D1
:10065000A7FE05E0FFF7B0FE031E01D0002326E051
:10066000154A8E235B00D358002BF3D012490F2379
:10067000FB181B783A68D3181B781A000F4BCA5026
:100680000D4A8E235B000021D1500F23FB181A78EE
:100690000F23FB1801321A700F23FA187B1D1278F2
:1006A0001B789A42D3D3044B01225A6101231800CC
:1006B000BD4605B090BDC046003000401C0500009E
:1006C00080B500AF1B4AA023DB000021D150A0233E
:1006D000DA05E023DB00C021C900D150A023DA05F0
:1006E000EF23DB00C021C900D150124A84235B00F4
:1006F0000021D1500F4A8E235B000021D1500D4ABA
:1007000092235B000021D1500A4AA123DB00002183
:10071000D150084A084B1E21D1500649074ACC2324
:100720005B048B50034AA023DB000521D150C04657
:10073000BD4680BD003000400C05000024050000CF
:10074000B0B584B000AF0400080011003B60FB1D91
:10075000221C1A70BB1D021C1A707B1D0A1C1A7009
:100760000F23FC183D687B1D1A78BB1D1978FB1DF3
:1007700018782B00FFF78EFE030023700F23FB1861
:100780001B78002B02D1FFF723FEE9E7C046C046E5
:10079000BD4604B0B0BDB0B584B000AF04000800E1
:1007A00011003B60FB1D221C1A70BB1D021C1A703D
:1007B0007B1D0A1C1A700F23FC183D687B1D1A78DC
:1007C000BB1D1978FB1D18782B00FFF709FF0300EC
:1007D00023700F23FB181B78002B02D1FFF7F8FDC5
:1007E000E9E7C046C046BD4604B0B0BD80B582B0A2
:1007F00000AF0200FB1D1A70BB1D0A1C1A70BA1D47
:10080000FB1D1978130001221920FFF7C4FFC04611
:10081000BD4602B080BD000080B584B000AF7860F6
:100820007B68FB60FB681B881A0080231B01134058
:1008300006D0FB681B88044A13439AB2FB681A80EF
:10084000C046BD4604B080BD00F0FFFF80B500AFDC
:10085000FFF736FF57212020FFF7C8FF0021212096
:10086000FFF7C4FF00212220FFF7C0FF082123204B
:10087000FFF7BCFF00212420FFF7B8FF002125204F
:10088000FFF7B4FFC046BD4680BD80B586B000AF5F
:10089000F860B9607A601023FB180622A82119209D
:1008A000FFF74EFF1023FB185B781B021022BA18CB
:1008B000127813431B111AB2FB681A801023FB181D
:1008C000DB781B021022BA18927813431B111AB25C
:1008D000BB681A801023FB185B791B021022BA1820
:1008E000127913431B111AB27B681A80FB68180037
:1008F000FFF792FFBB681800FFF78EFF7B681800B8
:10090000FFF78AFFC046BD4606B080BD80B586B001
:1009100000AF786039603B68002B03D17B683020E2
:10092000984755E000237B6100233B610023FB6077
:100930003B68002B1FDA0123FB603B685B423B6096
:1009400019E03A6913009B009B185B003B613B6810
:100950000A21180000F022FC0B001A003B699B18CA
:100960003B613B680A21180000F032FB03003B604A
:100970007B6901337B613B68002BE2D1FB68002B74
:1009800019D07B682D20984715E03B690A21180093
:1009900000F004FC0B00DBB23033DAB27B681000ED
:1009A00098473B690A21180000F012FB03003B61E5
:1009B0007B69013B7B613B69002BE6D105E07B68ED
:1009C000302098477B69013B7B617B69002BF6D126
:1009D000BD4606B080BD80B584B000AF786000230E
:1009E000FB600EE0FA6813009B009B185B00FB6045
:1009F0007B681B78303BFA68D318FB607B68013357
:100A00007B607B681B78642BECD1FB681800BD46CB
:100A100004B080BD80B584B000AF78607B68002BE7
:100A200001D1012316E00023FB607B68002B0DDA67
:100A3000FB680133FB6009E0FB680133FB607B6806
:100A40000A21180000F0C4FA03007B607B68002BC9
:100A5000F2D1FB681800BD4604B080BD0EB480B56D
:100A600089B000AF78603023FB18FB60FB6ABB6184
:100A700039E0BB691B78252B05D0BB691A787B68E8
:100A8000100098472CE0FB681A1DFA601B687B6118
:100A9000BB690133BB61BB691800FFF79CFF030012
:100AA0003B617B691800FFF7B5FF0300FB6102E0C3
:100AB000BB690133BB61BB691B78642BF8D105E0CE
:100AC0007B6820209847FB690133FB61FA693B6929
:100AD0009A42F5DB7A697B6811001800FFF716FF70
:100AE000BB690133BB61BB691B78002BC1D1C04618
:100AF000BD4609B080BC08BC03B0184780B582B0C1
:100B000000AF04237B6015E0A023DA0501217B6898
:100B100099400B001900A323DB00D150A023DB0573
:100B200001217A6891400A001100064A99507B68B9
:100B300001337B607B680F2BE6DDC046BD4602B00B
:100B400080BDC0460C05000080B586B000AF78605F
:100B5000396000F02FF80823FB187A681A60082320
:100B6000FB183A685A600823FB18180000F038F8A0
:100B70000823FB181B687B610823FB185B683B613B
:100B8000A023DB0501217A6991400A001100084A7F
:100B90009950A023DA0501213B6999400B00190007
:100BA000A123DB00D150C046BD4606B080BDC04683
:100BB0000C05000080B500AFA023DB050649E0224C
:100BC00012025A50A023DA05A123DB000349D150B9
:100BD000C046BD4680BDC0460C050000F01F0000A9
:100BE00080B586B000AF78607B681B687B617B68EE
:100BF0005B683B617B69022B02DD02237B6105E0C0
:100C00007B69023302DA02235B427B613B69022B80
:100C100002DD02233B6105E03B69023302DA022375
:100C20005B423B613B690233042B00D9BEE09A0072
:100C3000644BD3181B689F467B690233042B00D991
:100C4000ABE09A00604BD3181B689F460623FB60FD
:100C50000F23BB6013E00A23FB600E23BB600EE092
:100C60000423FB600F23BB6009E00923FB600E2314
:100C7000BB6004E00523FB600F23BB60C0468CE033
:100C80007B690233042B00D989E09A004F4BD318BB
:100C90001B689F460B23FB600D23BB6013E00A23F8
:100CA000FB600D23BB600EE00923FB600D23BB60DE
:100CB00009E00823FB600D23BB6004E00723FB6011
:100CC0000D23BB60C0466AE07B690233042B68D801
:100CD0009A003F4BD3181B689F460523FB600E23E9
:100CE000BB6013E00C23FB600D23BB600EE006230A
:100CF000FB600E23BB6009E00C23FB600F23BB608D
:100D000004E00423FB600E23BB60C04649E07B691E
:100D10000233042B47D89A002E4BD3181B689F46EA
:100D20000723FB600F23BB6013E00823FB600F2346
:100D3000BB600EE00923FB600F23BB6009E00A23C0
:100D4000FB600F23BB6004E00B23FB600F23BB6041
:100D5000C04628E07B690233042B26D89A001E4B3C
:100D6000D3181B689F460423FB600D23BB6013E070
:100D70000723FB600E23BB600EE00523FB600D2301
:100D8000BB6009E00823FB600E23BB6004E0062380
:100D9000FB600D23BB60C04607E0C04606E0C046CE
:100DA00004E0C04602E0C04600E0C0467B68FA6846
:100DB0001A607B680433BA681A60C046BD4606B044
:100DC00080BDC04600150000141500002815000065
:100DD0003C150000501500006415000080B500AF00
:100DE00000F036F8031E06D0134B144A1A60144B59
:100DF000802212021A6000F06BF8031E05D08023D7
:100E0000DA05C123DB000121D15000F087F8031E71
:100E10000ED00C4B1B68012B07D00A4B0A4A1A60F4
:100E2000C046084B1B68012BFBD1084BC0221A603F
:100E3000C046BD4680BDC04604050040DFFF07C078
:100E4000186C004000EC06407593000014EC06405E
:100E500080B500AF1A4B1B68FF221340012B2AD12B
:100E6000184B1B680F22134025D1174B1B68F0222B
:100E7000134006D1154B1B68F022134001D101230A
:100E80001AE0114B1B68F0221340102B06D10F4BB8
:100E90001B68F022134001D101230DE00A4B1B68AF
:100EA000F0221340302B06D1084B1B68F022134070
:100EB00001D1012300E000231800BD4680BDC046DB
:100EC000E00F00F0E40F00F0E80F00F0EC0F00F08E
:100ED00080B500AF0D4B1B68FF221340012B11D1D1
:100EE0000B4B1B680F2213400CD10A4B1B68F022DE
:100EF0001340402B06D1084B1B68F022134001D150
:100F0000012300E000231800BD4680BDE00F00F083
:100F1000E40F00F0E80F00F0EC0F00F080B500AF38
:100F2000144B1B68FF221340012B1ED1124B1B6870
:100F30000F22134019D1114B1B68F0221340A02B34
:100F400006D10F4B1B68F022134001D101230DE0A5
:100F50000A4B1B68F0221340D02B06D1084B1B68AC
:100F6000F022134001D1012300E000231800BD4608
:100F700080BDC046E00F00F0E40F00F0E80F00F085
:100F8000EC0F00F003210A4802680A430260094896
:100F900002680A4302600849084A094B9B1A03DDAC
:100FA000043BC858D050FBDCFFF718FFFFF7E2F80E
:100FB00024050040540500408C150000000000206E
:100FC00040040020FEE7FEE7FEE7FEE7FEE7FEE75F
:100FD00003460B437FD4002243088B4274D303099A
:100FE0008B425FD3030A8B4244D3030B8B4228D33B
:100FF000030C8B420DD3FF22090212BA030C8B4261
:1010000002D31212090265D0030B8B4219D300E000
:10101000090AC30B8B4201D3CB03C01A5241830B85
:101020008B4201D38B03C01A5241430B8B4201D335
:101030004B03C01A5241030B8B4201D30B03C01A5E
:101040005241C30A8B4201D3CB02C01A5241830AD8
:101050008B4201D38B02C01A5241430A8B4201D307
:101060004B02C01A5241030A8B4201D30B02C01A31
:101070005241CDD2C3098B4201D3CB01C01A524198
:1010800083098B4201D38B01C01A524143098B4221
:1010900001D34B01C01A524103098B4201D30B010A
:1010A000C01A5241C3088B4201D3CB00C01A52412F
:1010B00083088B4201D38B00C01A524143088B42F4
:1010C00001D34B00C01A5241411A00D2014652418D
:1010D000104670475DE0CA0F00D04942031000D3AC
:1010E0004042534000229C4603098B422DD3030A01
:1010F0008B4212D3FC22890112BA030A8B420CD311
:10110000890192118B4208D3890192118B4204D339
:1011100089013AD0921100E08909C3098B4201D3B9
:10112000CB01C01A524183098B4201D38B01C01AF3
:10113000524143098B4201D34B01C01A524103096A
:101140008B4201D30B01C01A5241C3088B4201D319
:10115000CB00C01A524183088B4201D38B00C01AC6
:101160005241D9D243088B4201D34B00C01A52419D
:10117000411A00D20146634652415B10104601D32A
:101180004042002B00D54942704763465B1000D3B4
:10119000404201B5002000F005F802BD0029F8D05A
:1011A00016E770477047C04610B5010000230022C3
:1011B000002000F099F810BD10B50021040000F0E7
:1011C000FDF8044B1868C36B002B00D09847200033
:1011D00000F07CF97815000070B5094B094CE41A51
:1011E000A41009D0084AA518AD00ED182B68013CE1
:1011F0009847043D002CF9D100F070F970BDC0464D
:10120000380400203C040020FFFFFF3F70B50D4E66
:101210000D4D0024AD1BAD1005D0A300F3580134D3
:101220009847A542F9D100F053F9084E084D002423
:10123000AD1BAD1005D0A300F35801349847A5426B
:10124000F9D170BD300400203004002030040020AB
:1012500038040020F0B5830743D0541E002A3FD045
:10126000CEB20200032502E01A00013C38D3531C21
:1012700016702B42F8D1032C2AD9FF220A401502FE
:1012800015432A0415430F2C14D927001A00103FC8
:101290003E09013636019E19156055609560D5608E
:1012A00010329642F8D10F2297431037DB191440C1
:1012B000032C0DD91A00271FBE080136B6009E194F
:1012C00020C2B242FCD1032297430437DB191440F9
:1012D000002C05D0C9B21C19197001339C42FBD1F6
:1012E000F0BD14000300C6E7F8B5DE469B46314B5F
:1012F00045461C68A4234E4657465B00E0B50500F2
:10130000E0580E00904600284BD043681F2B0DDCA0
:101310005C1C002D21D102339B0044601E50002034
:101320003CBC90469946A246AB46F8BD224B002BEA
:101330003CD0C820400000E000BF002836D0A422E6
:1013400000235200A15843600160A05040328350F6
:10135000043283500124002DDDD09A00914681444F
:10136000424688214F467A50C4225200904680441B
:1013700042468739994012688A460A439446424653
:1013800061461160842249465F4652008F50022D0B
:10139000C1D1020055468D32FF3211680D431560F0
:1013A000B9E720004D30FF30E050AEE70120404269
:1013B000B6E7C0467815000000000000F0B55746BB
:1013C000DE464E464546E0B50F00384B85B01B68FB
:1013D000019002934933FF330393A422029B5200EE
:1013E0009E58002E4ED0039B9946C4235B0098461E
:1013F00004339A467468B044A5007519B244013CA0
:1014000008D52DE06B1DFF331B689F4204D0043DBF
:10141000013C25D3002FF5D173686A68013BA342D4
:1014200039D000236B60002AF1D0736841469B4697
:101430000123A340096819422BD05146096819427B
:101440002BD12B00843319680198904773685B4552
:10145000C3D14B461B68B342BFD1043D013CD9D236
:10146000134B002B0ED07368002B1BD13368002B5D
:1014700008D04A463000136000E000BF4B461E68AB
:10148000002EB2D105B03CBC90469946A246AB4670
:10149000F0BD9047DAE77460C5E72B008433186825
:1014A0009047D3E7B1463668EAE7C04678150000B2
:1014B00000000000034B10B5002B02D00248FFF7DC
:1014C00073FE10BD00000000D9110000FEE7C04609
:1014D000F8B5C046F8BC08BC9E467047F8B5C04693
:1014E000F8BC08BC9E467047583A202536642059FF
:1014F0003A20253664205A3A202536640A0D000029
:10150000380C0000800C0000C80C00000E0D00001C
:10151000540D00004C0C0000560C0000600C000044
:101520006A0C0000740C0000940C00009E0C00007B
:10153000A80C0000B20C0000BC0C0000DA0C00008B
:10154000E40C0000EE0C0000F80C0000020D00009E
:10155000200D00002A0D0000340D00003E0D00009B
:10156000480D0000660D0000700D00007A0D0000AF
:10157000840D00008E0D00000800002043000000D4
:041580000000000067
:08158400F0EBFF7F0100000005
:10158C00080000200000000000000000F402002011
:10159C005C030020C40300200000000000000000D9
:1015AC00000000000000000000000000000000002F
:1015BC000000000000000000000000007C1500008E
:1015CC00000000000000000000000000000000000F
:1015DC0000000000000000000000000000000000FF
:1015EC0000000000000000000000000000000000EF
:1015FC0000000000000000000000000000000000DF
:10160C0000000000000000000000000000000000CE
:10161C0000000000000000000000000000000000BE
:10162C0000000000000000000000000000000000AE
:10163C0001000000000000000E33CDAB34126DE64B
:10164C00ECDE05000B0000000000000000000000B4
:10165C00000000000000000000000000000000007E
:10166C00000000000000000000000000000000006E
:10167C00000000000000000000000000000000005E
:10168C00000000000000000000000000000000004E
:1019BC00B5140000390100000D010000000000000A
:0400000300000F8565
:00000001FF
